:020000040800F2
:1000000000500020C91E00082D0A00082F0A000811
:10001000310A0008330A0008350A00080000000011
:10002000000000000000000000000000370A000887
:10003000390A0008000000003B0A00083D0A0008D9
:10004000111F0008111F0008111F0008111F0008D0
:10005000111F0008111F0008111F0008111F0008C0
:10006000111F0008111F0008111F0008111F0008B0
:10007000111F0008111F0008111F0008111F0008A0
:10008000111F0008111F0008410A0008111F000875
:10009000111F0008111F0008111F00084D0A000859
:1000A000111F0008550A0008111F0008111F000841
:1000B000111F0008610A0008111F0008111F000825
:1000C000111F0008111F0008111F0008111F000850
:1000D000111F0008111F0008111F0008111F000840
:1000E000111F0008111F0008111F00080000000068
:1000F0000000000000000000000000000000000000
:0C01000000000000000000005FF808F1A3
:10010C0010B5054C237833B9044B13B10448AFF345
:10011C0000800123237010BD3C040020000000006F
:10012C009C21000808B5034B1BB103490348AFF3EE
:10013C00008008BD00000000400400209C21000845
:10014C0038B50446114DCAB22846102100F0C6FF3E
:10015C00E868012220F00F000443EC60402128469F
:10016C0000F0BCFF00220A4C23685A625A6A132A18
:10017C00FCD900224021054800F0B0FF0022236882
:10018C005A625A6A132AFCD938BD00BF00080140D4
:10019C003C05002010B5044600210009FFF7D0FFF4
:1001AC0004F00F000021BDE81040FFF7C9BF10B5E7
:1001BC00044601210009FFF7C3FF04F00F000121E1
:1001CC00BDE81040FFF7BCBF20B1012805D0C8B274
:1001DC00FFF7E0BF41F08001F9E741F0C001F6E71D
:1001EC0008B5322000F086FC3320FFF7D3FF052042
:1001FC0000F080FC3220FFF7CDFF012000F07AFCEC
:10020C002820FFF7C7FF0A2000F074FC0120FFF73D
:10021C00C1FF012000F06EFCBDE808400C20FFF788
:10022C00B9BF10B5441E14F8010F00B910BDFFF78B
:10023C00BEFFF8E710B594B0142200210CA801F011
:10024C0087FE142200210DEB020001F081FE10222A
:10025C00002101A801F07CFE02244FF4803301221E
:10026C00CDE91143CDE90A234FF4E0130AA80E920D
:10027C00139300F045FF08B172B6FEE70F23CDE9EA
:10028C0005344FF480630790CDE90830214605A86A
:10029C0001F00CF908B172B6FEE74FF4004301A867
:1002AC000194039301F09EF908B172B6FEE714B005
:1002BC0010BD000080B594B000F0F8FBFFF7BAFF5A
:1002CC00102200210BA801F043FEB04B4FF400515B
:1002DC009A69AF4842F010029A619A69002402F0C0
:1002EC0010020192019A9A69012742F020029A6148
:1002FC009A694FF0020802F020020292029A9A695F
:10030C00032542F004029A619A694FF4805602F078
:10031C0004020392039A9A6942F008029A619B695B
:10032C00002203F008030493049B00F0D7FE002284
:10033C007F21984800F0D2FE01224FF4805196485C
:10034C0000F0CCFE4FF4005391480BA9CDE90B37CC
:10035C00CDE90D4800F0E2FD7F238E480BA9CDE9D5
:10036C000B37CDE90D4800F0D9FD4FF4FC5389480B
:10037C000BA9CDE90B3500F0D1FD40F225238648C1
:10038C000BA9CDE90B3500F0C9FD83480BA9CDE9CC
:10039C000B67CDE90D4800F0C1FD4FF4807C7F4B1D
:1003AC007D480BA9CDE90BC30D9400F0B7FD224697
:1003BC002146172000F05EFD172000F08DFD784DD2
:1003CC00784B28462B604FF46023CDE90B440D94F9
:1003DC00AC602C732C75EB616C602F6100F0B8FC79
:1003EC0008B172B6FEE7092328460BA9CDE90B37F5
:1003FC00CDF8348000F008FC034608B172B6FEE775
:10040C004FF482756848694A4FF48064C0E900254E
:10041C004FF400624FF48027C0E9024230220A24D4
:10042C00C0E90433C0E908338362C0E90672C462D0
:10043C0001F052F9034608B172B6FEE75C485D4A1A
:10044C004FF40071C0E900252822C0E90233C0E94D
:10045C000433C0E90612C0E90833C0E90A3401F0DC
:10046C003BF9054608B172B6FEE7102201460BA80F
:10047C0001F06EFD4723504C504A2046C4E900233E
:10048C0040F2E733CDE90755C4E90335C4E9055516
:10049C00A56001F00FFB08B172B6FEE720460BA970
:1004AC000B9601F046FC08B172B6FEE7CDE90700E9
:1004BC0007A9204601F0D2FC044608B172B6FEE74B
:1004CC000146102207A801F043FD1C2221460BA86F
:1004DC00CDE9054401F03CFD4FF08043384DC5E9B2
:1004EC0000344FF6FF732846C5E90334AC60AC61A9
:1004FC0001F0E0FA08B172B6FEE7284607A90796A4
:10050C0001F017FC08B172B6FEE7284601F0FEFABE
:10051C0008B172B6FEE70023294805A9CDE90533D9
:10052C0001F09CFC08B172B6FEE760230D90CDE99A
:10053C000B300F90082222480BA901F095FB08B153
:10054C0072B6FEE70C221E480BA901F08DFB044687
:10055C0008B172B6FEE71A4800F032FA10222146B2
:10056C000BA801F0F5FC174D174B2846C5E90034D4
:10057C0040F26713CDE90744C5E90334AC60AC61C4
:10058C0001F098FA10B372B6FEE700BF00100240FB
:10059C000010014000080140000C01400000111047
:1005AC005C040020002401408C0400200030014039
:1005BC00E4040020003800403C050020002C0140E1
:1005CC0084050020CC050020000400404FF480532B
:1005DC0028460BA90B9301F0ACFB08B172B6FEE7F1
:1005EC00CDE9070007A9284601F038FC044608B1FC
:1005FC0072B6FEE7014620220CA801F0A9FC254D9D
:10060C00254B0126C5E900344FF6FF7328460BA98C
:10061C00CDE90744C5E90334AC60AC610B960D968B
:10062C00119601F09FFA08B172B6FEE7CDE907000A
:10063C0007A9284601F012FC044608B172B6FEE781
:10064C00FFF7CEFD15490BA801F0D4FC14490DA8F9
:10065C0001F0D0FC21462046FFF7B6FD0BA8FFF7B2
:10066C00E0FD21463046FFF7AFFD0DA8FFF7D9FDA1
:10067C004FF47A7000F03EFA0A4A0B4B117801F0F5
:10068C00FF0009B11470F9E719780029F6D0187039
:10069C00F4E700BF1406002000080040B421000855
:1006AC00BD2100085C06002058040020B0F5807FB6
:1006BC0007D1054B1A7822B1002204481A7001F0B8
:1006CC00D7B800BF704700BF00000020CC05002049
:1006DC000D4B10B59842044603D101220B4B1A70F6
:1006EC0010BD0B4B9842FBD14FF48071094800F0C0
:1006FC00EFFC0128F4D1084B1870084B18702046F9
:10070C00BDE8104001F0DEB83C0500205C0600207E
:10071C00CC050020000C01400000002058040020F3
:10072C000E4B82B09A6942F001029A619A6902F00A
:10073C0001020092009ADA6942F08052DA61DB69B8
:10074C00074A03F080530193019B536823F0E06345
:10075C0043F00073536002B0704700BF00100240BA
:10076C000000014010B5044686B01022002102A8FA
:10077C0001F0EEFB2268144B9A4223D103F56C4333
:10078C009A69124842F400729A619A6902A902F4B9
:10079C0000720092009A9A6942F008029A619B6971
:1007AC00022203F008030193019B0323CDE90223EA
:1007BC0000F0B4FB00221220114600F05BFB12206B
:1007CC0000F08AFB06B010BD00240140000C014073
:1007DC0070B5102405468AB02246002106A801F007
:1007EC00B7FB2B68374A93423FD1374B02269A69A5
:1007FC00032542F480529A619A69344802F480527B
:10080C000192019A996941F004019961996901F089
:10081C0004010291029A996941F0080199619B695E
:10082C0006A903F008030393039B4FF400430995B7
:10083C00CDE9063600F072FB0823254806A9CDE960
:10084C000636099500F06AFB0023214806A9CDE97C
:10085C000733069400F062FB1E4A536843F0E063D2
:10086C0043F0010353600AB070BD1B4A9342FAD1A6
:10087C00154B06A9DA69164842F48042DA61DA6946
:10088C0002F480420492049A9A6942F008029A6136
:10089C009B694FF4204203F008030593059B022348
:1008AC00CDE906230323099300F038FB00234FF412
:1008BC0080410748CDE9061306A9089300F02EFBEA
:1008CC00D1E700BF00300140001002400008014099
:1008DC00000C014000000140003800401FB50368C7
:1008EC001E4A934214D11E4B19209A6942F400629D
:1008FC009A6100229B69114603F400630193019BEA
:10090C0000F0B8FA192005B05DF804EB00F0E4BA79
:10091C00B3F1804F0DD103F50433DA6942F00102D3
:10092C00DA61DB6903F001030293029B05B05DF809
:10093C0004FB0C4A9342F9D1094B1D20DA6942F0B1
:10094C000202DA610022DB69114603F00203039311
:10095C00039B00F08FFA1D20D5E700BF002C01404F
:10096C00001002400004004010B5044686B010226E
:10097C00002102A801F0ECFA22680F4B9A4219D11F
:10098C0003F50233DA690D4842F00402DA61DA69E0
:10099C0002A902F004020092009A9A6942F008023D
:1009AC009A619B6903F008030193019BC023029396
:1009BC0000F0B4FA06B010BD00080040000C014075
:1009CC0010B5044686B01022002102A801F0C0FA2E
:1009DC002368B3F1804F1DD103F504339A690E4897
:1009EC0042F008029A619B694FF4406203F00803DD
:1009FC000193019B022302A9CDE90223059300F088
:100A0C008DFA064A536823F4407343F0E06343F4D1
:100A1C000073536006B010BD000C01400000014093
:100A2C00FEE7FEE7FEE7FEE7FEE77047704770471C
:100A3C0000F04EB8014800F071B800BF5C04002013
:100A4C004FF4807000F050BB014800F058BF00BF5D
:100A5C003C050020014800F052BF00BFCC0500202F
:100A6C007047000038B50E4B054618784FF47A7372
:100A7C00B3FBF0F30B4A1068B0FBF3F000F03AFA5A
:100A8C00044658B90F2D09D8024629464FF0FF30BD
:100A9C0000F0F0F92046044B1D6038BD0120FCE746
:100AAC0008000020040000200C000020074A08B5B4
:100ABC001368032043F01003136000F0C9F90F20F2
:100ACC00FFF7D0FFFFF72CFE002008BD00200240EE
:100ADC00034A044B11681B780B441360704700BF2A
:100AEC006006002008000020014B1868704700BF0A
:100AFC006006002038B50446FFF7F6FF0546631C78
:100B0C001EBF044B1B78E418FFF7EEFF431BA342F8
:100B1C00FAD338BD0800002070477047036810B541
:100B2C005A680446900627D51A68910724D5A26AFC
:100B3C00D2065EBFA26A42F40072A2629A6802F404
:100B4C006022B2F5602F10D1227B72B95A6822F064
:100B5C0020025A60A36A23F48073A362A36ADB04A5
:100B6C005EBFA36A43F00103A3622046FFF7D4FFE4
:100B7C006FF0120223681A6023685A68100630D589
:100B8C001A6851072DD5A26AD2065EBFA26A42F43A
:100B9C000052A2629A6802F4E042B2F5E04F0AD029
:100BAC005A68500516D49A6802F46022B2F5602F88
:100BBC0010D1227B72B95A6822F080025A60A36A63
:100BCC0023F48053A362A36AD9055EBFA36A43F0E2
:100BDC000103A362204600F039F96FF00C02236880
:100BEC001A6023685A6852060DD51B68DB070AD5B4
:100BFC00A36A204643F48033A362FFF78EFF6FF0A5
:100C0C00010223681A6010BD002373B5019390F89C
:100C1C0024300446012B6CD0012380F824304D681D
:100C2C000268062D086805EB850322D81F26556B34
:100C3C00053B9E4025EA060500FA03F32B4353635C
:100C4C0009288B6800EB40054FF0070129D9D668BD
:100C5C001E3DA94026EA0101AB400B43D360A0F135
:100C6C001003012B25D90020002384F8243002B076
:100C7C0070BD0C2D4FF01F0509D8166B233B9D4002
:100C8C0026EA050500FA03F32B431363D8E7D66A6B
:100C9C00413B9D4026EA050500FA03F32B43D36242
:100CAC00CEE71069A94020EA0101AB400B43136168
:100CBC00D9E7114B9A4216D193681B02D3D493688F
:100CCC00102843F400039360CDD10C4B0C4A1B68E5
:100CDC00B3FBF2F30A2253430193019B002BC2D0C6
:100CEC00019B013BF8E7A36A012043F02003A362B8
:100CFC00BAE70220BBE700BF00240140040000203B
:100D0C0040420F0038B5036804469A68D10701D4F5
:100D1C00002038BD9A6822F001029A60FFF7E4FEC9
:100D2C00054623689B68DB07F2D5FFF7DDFE401B09
:100D3C000228F6D923689B68DA07F2D5A36A01204A
:100D4C0043F01003A362E36A43F00103E362E0E7BC
:100D5C00F8B5044600286ED0836A23B9C36280F8C4
:100D6C002430FFF7FFFC2046FFF7CCFFA36A13F0FB
:100D7C00100362D1002860D1A26AE569616822F48F
:100D8C00885222F0020242F002022943A568A262B4
:100D9C00227BB5F5807F41EA420137D0012D14BF8B
:100DAC0000274FF48077267D012E06D182BBA269E5
:100DBC00013A47EA423646F400672268B5F5807F6F
:100DCC00566826F4694646EA0706566097681D4E33
:100DDC0006EA070646EA0106966001D0012D02D10B
:100DEC002369013B1B05D56A25F470052B43D3629F
:100DFC009268154B1340994213D10023E362A36A06
:100E0C0023F0030343F00103A362F8BD2F46CAE7A6
:100E1C00A26A42F02002A262E26A42F00102E2629D
:100E2C00CBE7A36A23F0120343F01003A362E36A37
:100E3C0043F00103E3620120E7E7A36A43F01003E8
:100E4C00A362F8E7FDF7E1FFFE0E1FFF70470000FD
:100E5C0007490302CA6803F4E06322F4E062120457
:100E6C00120C134343F0BF6343F40033CB60704761
:100E7C0000ED00E0164B30B5DC68C4F30224C4F17D
:100E8C000703251D042B28BF0423062D4FF0FF3527
:100E9C0098BF002405FA03F388BF033C21EA03033F
:100EAC00A34005FA04F422EA0402002843EA0203F0
:100EBC00ACBF00F16040074A4FEA0313DBB2ABBF93
:100ECC0000F5614000F00F0080F80033135430BD82
:100EDC0000ED00E014ED00E0002808DB01234209DE
:100EEC0000F01F0003FA00F0014B43F8220070479A
:100EFC0000E100E00138B0F1807F0BD24FF0E0232D
:100F0C00F021054A586182F82310002007229861CD
:100F1C001A6170470120704700ED00E02DE9F74F92
:100F2C0000221646644F654BDFF894C1DFF894E15C
:100F3C000D6835FA06F402D103B0BDE8F08F4FF01E
:100F4C00010808FA06F805EA080438EA05057BD119
:100F5C004D68032D07D8013D022D00F28880DFE893
:100F6C0005F0969BA100122D00F099806ED8112DE2
:100F7C0000F08F80FF2C98BF82464FF00F0988BF7E
:100F8C0000F1040A4FEA8605DAF8008088BF203D9C
:100F9C0009FA05FB28EA0B0802FA05F548EA0505EB
:100FAC00CAF80050D1F804A01AF0805F4CD0BD698B
:100FBC0026F0030845F00105BD61BD6908F18048C4
:100FCC0005F00105019508F5803806F0030B019D2D
:100FDC004FEA8B0BD8F8085009FA0BF925EA0909E6
:100FEC00394DA84262D005F58065A84260D005F560
:100FFC008065A8425ED005F58065A8420CBF03252C
:10100C00042505FA0BF545EA0905C8F808501D68D2
:10101C001AF4803F14BF2543A5431D605D681AF484
:10102C00003F14BF2543A5435D609D681AF4801FE3
:10103C0014BF2543A5439D60DD681AF4001F14BF3F
:10104C002C4325EA0404DC60013671E7DFF87C9060
:10105C004D450CD017D8A9F580194D4507D009F589
:10106C0070294D4503D0A9F580194D4582D18A6868
:10107C00D2B1012A08BFC0F810804FF0080218BF87
:10108C00C0F8148076E76545F1D07545EEE7CA687F
:10109C0070E7CA6804326DE7CA6808326AE7CA6842
:1010AC000C3267E7002265E7042263E70025A8E716
:1010BC000125A6E70225A4E7001002400004014028
:1010CC000000311000003210000801400000221016
:1010DC008368194214BF0120002070470AB10161D6
:1010EC0070470904FBE70000044A08B55169014246
:1010FC0002D05061FFF7DAFA08BD00BF00040140CE
:10110C002DE9F341054638B30368DB0710D42B688F
:10111C009F075ED42B68190700F195802B685A073E
:10112C0000F1C180E869002840F02C81002029E002
:10113C00904C636803F00C03042B07D0636803F036
:10114C000C03082B0AD16368DE0307D523689C03C4
:10115C00DDD56B68002BDAD1012013E06B68B3F599
:10116C00803F12D1236843F480332360FFF7BCFC2B
:10117C00064623689803CAD4FFF7B6FC801B642884
:10118C00F7D9032002B0BDE8F0819BB9236823F4A2
:10119C0080332360236823F480232360FFF7A4FCAF
:1011AC00064623689903B2D5FFF79EFC801B642882
:1011BC00F7D9E6E7B3F5A02F236803D143F48023D6
:1011CC002360CFE723F480332360236823F4802348
:1011DC00CBE7684C636813F00C0F07D0636803F01F
:1011EC000C03082B10D16368DA030DD423689B071A
:1011FC0002D52B69012BAFD123686A6923F0F80360
:10120C0043EAC203236085E72A695B4B6AB101227A
:10121C001A60FFF769FC064623689F07ECD4FFF7BA
:10122C0063FC801B0228F7D9ABE71A60FFF75CFC64
:10123C000646236898077FF56DAFFFF755FC801BBA
:10124C000228F6D99DE7AA694A4E4B4BE2B101221E
:10125C00C3F88024FFF748FC0446736A9B070DD53E
:10126C004FF4FA52454B1B68B3FBF2F3019300BFEA
:10127C00019B5A1E0192002BF9D14FE7FFF734FC6A
:10128C00001B0228E9D97CE7C3F88024FFF72CFC6B
:10129C000446736A9F077FF541AFFFF725FC001BDF
:1012AC000228F6D96DE7334CE369D80024D4012722
:1012BC00E36943F08053E361E36903F080530093E7
:1012CC00009B2F4E3368D90518D5EB68012B26D11E
:1012DC00236A43F001032362FFF706FC41F28838CE
:1012EC000646236A9B073FD5002F3FF41BAFE369EB
:1012FC0023F08053E36115E70027E2E7336843F4FA
:10130C0080733360FFF7F0FB80463368DA05DCD47A
:10131C00FFF7EAFBA0EB08006428F6D931E7ABB97C
:10132C00236A41F2883823F001032362236A23F0F5
:10133C0004032362FFF7D8FB0646236A9807D3D52C
:10134C00FFF7D2FB801B4045F7D91AE7052B236A20
:10135C0003D143F004032362BAE723F001032362B1
:10136C00236A23F00403B6E7FFF7BEFB801B40455E
:10137C00B7D906E7001002400000424204000020EA
:10138C00007000402A4C636803F00C03082B3ED01D
:10139C000022284B02281A662CD1FFF7A5FB064623
:1013AC002368990120D42B6AB3F5803F05D162687C
:1013BC00A96822F400320A436260696A62680B43CE
:1013CC0022F474121343012263601A4B1A66FFF75E
:1013DC008BFB054623689A013FF5A8AEFFF784FB0B
:1013EC00401B0228F6D9CCE6FFF77EFB801B0228B7
:1013FC00D6D9C6E6FFF778FB054623689B017FF537
:10140C0095AEFFF771FB401B0228F6D9B9E601280F
:10141C003FF4B8AE63682A6A03F4803191427FF4DA
:10142C009BAE6A6A03F4701393423FF47FAE93E66B
:10143C00001002400000424230B5184B87B002AC9D
:10144C0003F11005224618685968083303C2AB42F1
:10145C001446F7D140F201231149ADF804304B6822
:10146C0003F00C02082A17D1C3F3834206A80244E6
:10147C00DB0312F8100C0CD50A4A4B685043C3F32B
:10148C00404306AA134413F8143CB0FBF3F007B026
:10149C0030BD054B5843FAE70248F8E7D521000860
:1014AC000010024000127A0000093D002DE9F041C5
:1014BC000D46044610B90120BDE8F081444A13687A
:1014CC0003F007038B4228D321688E0730D4CA0758
:1014DC0043D43F4A136803F00703AB4265D8226834
:1014EC003C4D12F0040F6CD1130706D56B682269C2
:1014FC0023F4605343EAC2036B60FFF79DFF6B68F4
:10150C00354AC3F30313D35CD840344B1860344BC7
:10151C001868FFF7A7FA0020CEE7136823F007033B
:10152C000B431360136803F007038B42C3D1CBE763
:10153C00284B11F0040F1EBF5A6842F4E0625A6047
:10154C00080742BF5A6842F460525A605A68A06851
:10155C0022F0F00202435A60B9E762681D4E012A7C
:10156C0033681AD113F4003FA5D0736841F2883860
:10157C0023F0030313437360FFF7B6FA074673684F
:10158C00626803F00C03B3EB820FA2D0FFF7ACFA46
:10159C00C01B4045F3D903208EE7022A02D113F079
:1015AC00007FE1E713F0020FDEE7136823F0070377
:1015BC002B431360136803F00703AB427FF47BAF3C
:1015CC008DE76B68E16823F4E0630B436B608BE79A
:1015DC000020024000100240C52100080400002039
:1015EC000C00002003682DE9F341D907054620D5EE
:1015FC00364CE369DA0032D40126E36943F08053B8
:10160C00E361E36903F080530193019B304F3B6826
:10161C00DB0526D5236A13F4407336D1236A6A6836
:10162C0023F44073134323621EB1E36923F0805308
:10163C00E3612868830706D52449AB684A6822F41D
:10164C0040421A434A6010F010001BD01F4AE96850
:10165C005368002023F480030B43536012E00026F0
:10166C00D4E73B6843F480733B60FFF73DFA804658
:10167C003B68D805CED4FFF737FAA0EB08006428F6
:10168C00F6D9032002B0BDE8F0816A6802F440721A
:10169C009A42C3D001200F4A236AC2F840040020AA
:1016AC0023F44071C2F840042162D907B6D5FFF784
:1016BC001BFA41F288380746236A9A07AED4FFF723
:1016CC0013FAC01B4045F7D9DBE700BF00100240FE
:1016DC00007000400000424210B50446002851D072
:1016EC00436A002B4AD14268B2F5827F00D0C361B5
:1016FC000023A36294F8513003F0FF0223B9204673
:10170C0084F85020FFF764F80223226884F85130E3
:10171C001368A06823F040031360636800F404406E
:10172C0003F482730343E068A16900F4006003438F
:10173C00206900F002000343606900F001000343DC
:10174C0001F400700343E069090C00F03800034316
:10175C00206A01F0040100F080000343A06A00F449
:10176C000050034313605160D369002023F40063DD
:10177C00D3610123606584F8513010BD0023C0E9AA
:10178C000433B5E70120F8E7036A70B523F00103D1
:10179C000362036A446882690D6822F073022A436B
:1017AC008D6823F002032B430A4DA8420BD1CD6860
:1017BC0023F008032B4324F44074D1E90556354338
:1017CC0023F004032C43446082614A684263036241
:1017DC0070BD00BF002C0140036A70B523F4807308
:1017EC000362036A4468C2690D6822F073022A43DB
:1017FC008D6823F4007343EA05230B4DA8420DD1E9
:10180C00CD6823F4006343EA052324F44054D1E962
:10181C000556354323F4806344EA05144460C261E1
:10182C004A68C263036270BD002C0140036A30B584
:10183C0023F480530362036A4468C2690D6822F47E
:10184C00E64242EA05228D6823F4005343EA05334D
:10185C00064DA84202BF4D6924F4804444EA851425
:10186C004460C2614A680264036230BD002C0140CE
:10187C0090F83D30012B20D1022380F83D300368D5
:10188C00DA6842F00102DA600D4A93420AD0B3F1F1
:10189C00804F07D0A2F59432934203D002F58062B8
:1018AC00934204D19A6802F00702062A03D01A6800
:1018BC0042F001021A60002070470120704700BFFF
:1018CC00002C01400368DA6822F00102DA6041F270
:1018DC001112196A114208D140F24442196A11429C
:1018EC0002BF1A6822F001021A60012380F83D3011
:1018FC000020704770477047704770477047036807
:10190C0010B51A69044691070ED5DA6892070BD503
:10191C006FF002021A61012202779B699B0777D054
:10192C00FFF7EAFF0023237723681A69500710D5C5
:10193C00DA6851070DD56FF004021A610222227782
:10194C009B69204613F4407F68D0FFF7D5FF002336
:10195C00237723681A6912070FD5DA6810070CD59C
:10196C006FF008021A6104222277DB69204699077E
:10197C005AD0FFF7C1FF0023237723681A69D206D8
:10198C0010D5DA68D0060DD56FF010021A61082256
:10199C002277DB69204613F4407F4BD0FFF7ACFF76
:1019AC000023237723681A69D10708D5DA68D20790
:1019BC0005D56FF0010220461A61FEF789FE2368F7
:1019CC001A69100608D5DA68110605D56FF0800281
:1019DC0020461A6100F071FA23681A69520608D57C
:1019EC00DA68500605D56FF0400220461A61FFF701
:1019FC0085FF23681A69910622D5DA6892061FD5ED
:101A0C006FF020022046BDE810401A6100F054BA75
:101A1C00FFF771FF2046FFF770FF83E7FFF76BFFBF
:101A2C002046FFF76AFF92E7FFF765FF2046FFF7B6
:101A3C0064FFA0E7FFF75FFF2046FFF75EFFAFE70D
:101A4C0010BD00001A4A036890420AD0B0F1804FD2
:101A5C0007D0A2F59432904203D002F580629042F6
:101A6C0015D14A6823F070031343114A90420AD0EF
:101A7C00B0F1804F07D0A2F59432904203D002F51A
:101A8C008062904203D1CA6823F4407313434A69BD
:101A9C0023F08003134303608B68C3620B6883627B
:101AAC00034B984204BF0B690363012343617047E6
:101ABC00002C014010B5044630B390F83D3003F0D3
:101ACC00FF021BB980F83C20FEF708FF02232068B8
:101ADC0084F83D30211DFFF7B5FF0123002084F869
:101AEC00463084F83E3084F83F3084F8403084F837
:101AFC00413084F8423084F8433084F8443084F820
:101B0C00453084F83D3010BD0120FCE710B504468B
:101B1C0030B390F83D3003F0FF021BB980F83C2045
:101B2C00FFF7E8FE0223206884F83D30211DFFF703
:101B3C0089FF0123002084F8463084F83E3084F875
:101B4C003F3084F8403084F8413084F8423084F8D7
:101B5C00433084F8443084F8453084F83D3010BD6F
:101B6C000120FCE7F8B50D46044600284DD090F84E
:101B7C003D3003F0FF021BB980F83C20FEF7F4FE69
:101B8C000223214684F83D3051F8040B836823F47A
:101B9C00804323F007038360FFF754FF20682A6813
:101BAC0086688369A9681643AA6923F4407341EADD
:101BBC00022123F003030B4323F47C422B69E969D4
:101BCC001B0143EA0123E968076A0B43296A22F0E7
:101BDC00FC0243EA01331343696927F022026F6860
:101BEC00866047EA011783611743012307620020CF
:101BFC0084F8463084F83E3084F83F3084F8423024
:101C0C0084F8433084F83D30F8BD0120FCE7000037
:101C1C00036A70B523F010030362036A4468826997
:101C2C000D6822F4E64242EA05228D6823F0200377
:101C3C0043EA05130B4DA8420DD1CD6823F0800368
:101C4C0043EA051324F44064D1E90556354323F0E7
:101C5C00400344EA8504446082614A6882630362FB
:101C6C0070BD00BF002C014038B590F83C300446E4
:101C7C00012B52D00123082A80F83C303CD006D8E6
:101C8C00C2B1042A27D0002084F83C0038BD0C2AAD
:101C9C00F9D10068FFF7CAFD23680969DA6942F4D3
:101CAC000062DA61DA6922F48062DA61DA6942EAA6
:101CBC00012230E00068FFF767FD236809699A6923
:101CCC0042F008029A619A6922F004029A619A69B8
:101CDC000A439A61D7E70068FFF79AFF23680969FE
:101CEC009A6942F400629A619A6922F480629A615C
:101CFC009A6942EA0122ECE70068FFF76DFD236860
:101D0C000969DA6942F00802DA61DA6922F0040240
:101D1C00DA61DA690A43DA61B5E70220B6E710B591
:101D2C0084680A4324F47F4442EA032222438260FB
:101D3C0010BD70B590F83C300446012B4FF00200FA
:101D4C0027D0012384F83D00206884F83C30836858
:101D5C0023F47F4323F0770383600B68602B4DD013
:101D6C0032D8402B62D015D8202B03D009D833F0B1
:101D7C00100208D1826822F07002134343F007036B
:101D8C0020E0302BF6D00123002084F83D3084F87D
:101D9C003C0070BD502BF6D14A68CE68016A056ACA
:101DAC0021F00A0125F00105056283690A4323F03D
:101DBC00F00343EA061383610262836823F0700325
:101DCC0043F057038360DEE7702B0CD0B3F5005F54
:101DDC00D9D1CB68D1E90121FFF7A1FF2268936823
:101DEC0043F4804308E0CB68D1E90121FFF797FF6A
:101DFC002268936843F077039360C4E74D68CE681C
:101E0C00016A21F0100101628269036A22F47042B6
:101E1C0023F0A00343EA051342EA0632826103620F
:101E2C00836823F0700343F06703CBE74A68CE68FE
:101E3C00016A056A21F00A0125F001050562836932
:101E4C000A4323F0F00343EA0613836102628368BA
:101E5C0023F0700343F04703B4E7000030B590F86B
:101E6C003C300246012B4FF0020022D0136882F85E
:101E7C003D005C680D6824F070042C4398685C602D
:101E8C000C4CA3420AD0B3F1804F07D0A4F5943484
:101E9C00A34203D004F58064A34204D1496820F026
:101EAC008000014399600123002082F83D3082F8C4
:101EBC003C0030BD002C0140704770470C480D4968
:101ECC000D4A002302E0D458C4500433C4188C4289
:101EDC00F9D30A4A0A4C002301E013600432A242EF
:101EEC00FBD3FEF7BDFD00F00FF8FEF7E3F97047EA
:101EFC00000000203C040020F82100083C040020D5
:101F0C0068060020FEE7000070B50D4E0D4D761BE7
:101F1C00B61006D0002455F8043B01349847A6426D
:101F2C00F9D1094E094D00F033F9761BB61006D0E5
:101F3C00002455F8043B01349847A642F9D170BDF2
:101F4C00EC210008EC210008F4210008EC21000829
:101F5C00830730B548D0541E002A3FD00346CAB27E
:101F6C0001E0013C3AD303F8012B9D07F9D1032C76
:101F7C002DD9CDB245EA05250F2C45EA054536D9B4
:101F8C00A4F1100222F00F0C03F1200EE6444FEAEC
:101F9C00121C03F1100242E9045542E902551032B9
:101FAC007245F8D10CF1010214F00C0F03EB021284
:101FBC0004F00F0C13D0ACF1040323F0030304332F
:101FCC00134442F8045B9342FBD10CF003042CB194
:101FDC00CAB21C4403F8012B9C42FBD130BD6446B1
:101FEC001346002CF4D1F9E703461446BFE71A4612
:101FFC00A446E0E780EA0102844612F0030F4FD1B9
:10200C0011F0030F32D14DF8044D11F0040F51F8BB
:10201C00043B0BD0A3F101329A4312F0803F04BF72
:10202C004CF8043B51F8043B16D100BF51F8044B5B
:10203C00A3F101329A4312F0803FA4F101320BD18B
:10204C004CF8043BA24312F0803F04BF51F8043B10
:10205C004CF8044BEAD023460CF8013B13F0FF0F6D
:10206C004FEA3323F8D15DF8044B704711F0010FA0
:10207C0006D011F8012B0CF8012B002A08BF704771
:10208C0011F0020FBFD031F8022B12F0FF0F16BF68
:10209C002CF8022B8CF8002012F47F4FB3D1704730
:1020AC0011F8012B0CF8012B002AF9D1704700BF55
:1020BC00024B13B1024800F005B870470000000055
:1020CC00DD200008002301461A46184600F01AB815
:1020DC0038B5084B084D5B1B9C1007D0043B1D44C6
:1020EC00013C55F804399847002CF9D1BDE838402B
:1020FC0000F054B8F8210008F4210008704700BF24
:10210C00704700BF2DE9F047DFF87CA00646DAF8EF
:10211C00000098460F469146FFF7F0FF1B4B1B68DB
:10212C00D3F8484124B365681F2D26DC5EB96B1CBF
:10213C000235DAF80000636044F82570FFF7E0FF21
:10214C000020BDE8F087012304EB8501C1F88890DD
:10215C00D4F88821AB401A43022EC4F88821C1F868
:10216C000881E4D1D4F88C211343C4F88C31DEE718
:10217C0003F5A674C3F84841D5E7DAF80000FFF779
:10218C00BFFF4FF0FF30DCE738040020E8210008E7
:10219C00F8B500BFF8BC08BC9E467047F8B500BF48
:0821AC00F8BC08BC9E46704718
:1021B4005374617274696E67004675726E6163650B
:1021C40000000000000000000001020304060708EC
:1021D4000902030405060708090A0B0C0D0E0F106B
:0821E4001000000010000020B3
:0821EC00BD20000831010008CC
:0421F4000D010008D1
:1021F800010000000024F4000100000010000000AD
:1022080000000000FC02002064030020CC03002032
:1022180000000000000000000000000000000000B6
:1022280000000000000000000000000000000000A6
:102238000000000000000000000000000000000096
:102248000000000000000000000000000000000086
:102258000000000000000000000000000000000076
:102268000000000000000000000000000000000066
:102278000000000000000000000000000000000056
:102288000000000000000000000000000000000046
:102298000000000000000000000000000000000036
:1022A8000000000000000000010000000000000025
:1022B8000E33CDAB34126DE6ECDE05000B000000EA
:1022C8000000000000000000000000000000000006
:1022D80000000000000000000000000000000000F6
:1022E80000000000000000000000000000000000E6
:1022F80000000000000000000000000000000000D6
:0C2628000000000000000000640600201C
:0400000508001EC908
:00000001FF
